S014000041746D6567612D4144435F332E737265633A
S11300000C942A000C9447000C9447000C9447006D
S11300100C9447000C9447000C9447000C94FC0289
S11300200C9447000C9447000C9447000C94470030
S11300300C9447000C9447000C9447000C94470020
S11300400C94B5020C9447000C9447000C944700A0
S11300500C94470011241FBECFE5D8E0DEBFCDBF0E
S113006010E0A0E6B0E0E4EFF6E002C005900D92E7
S1130070A236B107D9F720E0A2E6B0E001C01D9294
S1130080A236B207E1F70E9498020C9478030C940C
S11300900000672B09F09FC0009711F4D8980895C9
S11300A08130910511F4D99808958230910511F4A5
S11300B0DA9808958330910511F4DB98089584301B
S11300C0910511F4DC9808958530910511F4DD98BB
S11300D008958630910511F4DE98089587309105CE
S11300E011F4DF9808958A30910511F4C0980895A9
S11300F08B30910511F4C19808958C30910511F459
S1130100C29808958D30910511F4C39808958E30E6
S1130110910511F4C49808958F30910511F4C59890
S113012008958031910511F4C6980895813191059F
S113013011F4C79808958431910511F4A89808958D
S11301408531910511F4A99808958631910511F42A
S1130150AA9808958731910511F4AB9808958831D0
S1130160910511F4AC9808958931910511F4AD9875
S113017008958A31910511F4AE9808958B31910553
S113018011F4AF9808958E31910511F49098089563
S11301908F31910511F4919808958032910511F4ED
S11301A0929808958132910511F4939808958232BA
S11301B0910511F4949808958332910511F495985A
S11301C008958432910511F496980895859709F05D
S11301D09FC097980895009711F4D89A0895813094
S11301E0910511F4D99A08958230910511F4DA9A9F
S11301F008958330910511F4DB9A089584309105B4
S113020011F4DC9A08958530910511F4DD9A08956E
S11302108630910511F4DE9A08958730910511F422
S1130220DF9A08958A30910511F4C09A08958B30AD
S1130230910511F4C19A08958C30910511F4C29A74
S113024008958D30910511F4C39A08958E30910567
S113025011F4C49A08958F30910511F4C59A089544
S11302608031910511F4C69A08958131910511F4F4
S1130270C79A08958431910511F4A89A0895853197
S1130280910511F4A99A08958631910511F4AA9A59
S113029008958731910511F4AB9A08958831910539
S11302A011F4AC9A08958931910511F4AD9A089529
S11302B08A31910511F4AE9A08958B31910511F4A8
S11302C0AF9A08958E31910511F4909A08958F3163
S11302D0910511F4919A08958032910511F4929A3E
S11302E008958132910511F4939A0895823291050B
S11302F011F4949A08958332910511F4959A08950E
S11303008432910511F4969A0895859709F4979A81
S11303100895CF93C82F80FF07C061E070E082E2A8
S113032090E00E94490006C060E070E082E290E044
S11303300E944900C1FF07C061E070E083E290E0E1
S11303400E94490006C060E070E083E290E00E94F1
S11303504900C2FF07C061E070E084E290E00E94BF
S1130360490006C060E070E084E290E00E94490029
S1130370C3FF07C061E070E085E290E00E9449009D
S113038006C060E070E085E290E00E944900CF91F1
S11303900895CF93C82F60E070E08AE090E00E9457
S11303A049008C2F0E94890161E070E08BE090E0AD
S11303B00E9449008CEC9AE00197F1F700C000001C
S11303C060E070E08BE090E00E9449008CEC9AE0E1
S11303D00197F1F700C00000CF91089580E00E94DA
S11303E0C90181E00E94C9010895CF93C62F8130CD
S11303F059F480E8860F82958F700E94C9018C2F72
S11304008F700E94C9010CC0823051F480EC860FB9
S113041082958F700E94C9018C2F8F700E94C90130
S1130420CF91089580E00E9489018FEF97ED0197A5
S1130430F1F700C0000083E00E94C9018FEF95E34B
S11304400197F1F700C0000083E00E94C9018CEC21
S113045096E70197F1F700C0000083E00E94C9010C
S113046082E00E94C90182E00E94C90188E00E94E2
S1130470C90180E00E94C9018CE00E94C90180E0AA
S11304800E94C90186E00E94C9010895CF93C82F34
S113049061E070E08AE090E00E9449008C2F829530
S11304A08F700E94890161E070E08BE090E00E940F
S11304B049008CEC9AE00197F1F700C0000060E07D
S11304C070E08BE090E00E9449008CEC9AE0019788
S11304D0F1F700C000008C2F8F700E94890161E049
S11304E070E08BE090E00E9449008CEC9AE0019768
S11304F0F1F700C0000060E070E08BE090E00E9443
S113050049008CEC9AE00197F1F700C00000CF910C
S11305100895CF93DF93EC018881882331F02196ED
S11305200E94460289918111FBCFDF91CF910895FA
S11305308FEF81BB87BB78940E941202379A86B1F1
S1130540876086B93E9A8EB58C608EBD89B780610E
S113055089BF80EE90E19BBD8ABD359A80B7806AE1
S113056080BF369A0E94EE01FFCF1F920F920FB602
S11305700F9211242F933F934F935F936F937F9325
S11305808F939F93AF93BF93EF93FF93CF93DF9397
S1130590CDB7DEB72597DEBFCDBF84B125B190E0DE
S11305A04AE0BE016F5F7F4F922B0E94430360E0DD
S11305B081E00E94F501CE0101960E94890280E645
S11305C090E00E948902369A0F900F900F900F903E
S11305D00F90DF91CF91FF91EF91BF91AF919F91D8
S11305E08F917F916F915F914F913F912F910F90D8
S11305F00FBE0F901F9018951F920F920FB60F9277
S113060011242F933F934F935F936F937F938F9313
S11306109F93AF93BF93EF93FF93CF93DF93CDB7A4
S1130620DEB72597DEBFCDBF84B125B190E04AE0A7
S1130630BE016F5F7F4F922B0E94430360E081E015
S11306400E94F501CE0101960E94890280E690E0A5
S11306500E948902369A0F900F900F900F900F907E
S1130660DF91CF91FF91EF91BF91AF919F918F91C6
S11306707F916F915F914F913F912F910F900FBE9A
S11306800F901F901895BB274A3031F4992322F418
S1130690BDE2909581959F4F0C944F03BB27FB01BE
S11306A05527AA27880F991FAA1FA41710F0A41B67
S11306B083955051B9F7A05DAA3308F0A95DA193C1
S11306C0009779F7B111B1931192CB010C9468039F
S11306D0DC01FC01672F71917723E1F7329704C0A5
S11306E07C916D9370836291AE17BF07C8F3089530
S10706F0F894FFCFA8
S10506F42000E0
S9030000FC
